:020000040000fa
:080000000002040000000000f2
:020000040000fa
:100008005603000056030000560300005603000084
:100018005603000056030000560300005603000074
:100028005603000056030000560300005603000064
:100038005603000056030000560300005603000054
:100048005603000056030000560300009a02000001
:100058005603000056030000560300005603000034
:100068005603000056030000560300005603000024
:100078005603000056030000560300005603000014
:100088005603000056030000560300005603000004
:1000980056030000560300005603000056030000f4
:1000a80056030000560300005603000056030000e4
:1000b80056030000560300005603000056030000d4
:1000c80056030000560300005603000056030000c4
:1000d80056030000560300005603000056030000b4
:1000e80056030000560300005603000056030000a4
:1000f8005603000056030000560300005603000094
:100108005603000056030000560300005603000083
:100118005603000056030000560300005603000073
:100128005603000056030000560300005603000063
:100138005603000056030000560300005603000053
:100148005603000056030000560300005603000043
:100158005603000056030000560300005603000033
:100168005603000056030000560300005603000023
:100178005603000056030000560300005603000013
:100188005603000056030000560300005603000003
:1001980056030000560300005603000056030000f3
:1001a80056030000560300005603000056030000e3
:1001b80056030000560300005603000056030000d3
:1001c80056030000560300005603000056030000c3
:1001d80056030000560300005603000056030000b3
:1001e80056030000560300005603000056030000a3
:0801f80056030000560300004d
:020000040000fa
:100208005603000056030000560300005603000082
:100218005603000056030000560300005603000072
:100228005603000056030000560300005603000062
:100238005603000056030000560300005603000052
:100248005603000056030000560300009a020000ff
:100258005603000056030000560300005603000032
:100268005603000056030000560300005603000022
:100278005603000056030000560300005603000012
:100288005603000056030000560300005603000002
:1002980056030000560300005603000056030000f2
:1002a80056030000560300005603000056030000e2
:1002b80056030000560300005603000056030000d2
:1002c80056030000560300005603000056030000c2
:1002d80056030000560300005603000056030000b2
:1002e80056030000560300005603000056030000a2
:1002f8005603000056030000560300005603000092
:100308005603000056030000560300005603000081
:100318005603000056030000560300005603000071
:100328005603000056030000560300005603000061
:100338005603000056030000560300005603000051
:100348005603000056030000560300005603000041
:100358005603000056030000560300005603000031
:100368005603000056030000560300005603000021
:100378005603000056030000560300005603000011
:100388005603000056030000560300005603000001
:1003980056030000560300005603000056030000f1
:1003a80056030000560300005603000056030000e1
:1003b80056030000560300005603000056030000d1
:1003c80056030000560300005603000056030000c1
:1003d80056030000560300005603000056030000b1
:1003e80056030000560300005603000056030000a1
:0803f80056030000560300004b
:020000040000fa
:10040000cfa820000edf20000e01880000000000b1
:10041000000020000000e000020032000001200087
:10042000200288000c000700e0a720000100200047
:1004300011000700000020000000e0000200320070
:100440000000020000000000ae0d020000000000ed
:100450000040da000000fe004440a900c001200076
:100460000000e0000300320000002000a00188002e
:100470004440a80000000600910188008000780038
:100480000000eb0015003700e280400032a0b4000d
:100490009101ba00e280400032a0b4009102ba009b
:1004a000e280400032a0b4000002eb00472bde00e7
:1004b000f507b200602ce10004003a000059eb009f
:1004c0008301e900fdff3e00040037006128e100e0
:1004d000010032000082eb00040007001101ba00a5
:1004e0000200e000e8ff3a00000006003159ba00bf
:1004f0008301e9000c0032002159ba008301e900b0
:10050000080032000400e00003003a00e2804000ee
:1005100032a0b400f5ff370011d9ba008301e90019
:10052000faff3a008100e800e180400032a0b40008
:10053000000006003600f800809fbe00829fbe00cb
:10054000849fbe00869fbe000200fa00101180004a
:10055000620060000000e0000300320051cabf00ea
:100560000040e80051eab70030118000004f7800e9
:1005700090528000e10f50000c003200e10f50005b
:1005800003003900e20f5000110032003f00370035
:1005900000ccb3009e40780080cf500038003a0075
:1005a00010002000905288003800370000ccb300c3
:1005b0009e40780080cf500003003a0020002000c9
:1005c0009052880031003700522aef002f00370088
:1005d00000ccb3009e40780080cf50001b003a0052
:1005e0001000200090528800542aef0056cabf0025
:1005f0000080fb008000e80020002000000178005f
:10060000110009008200d8008000fd000040780041
:1006100056eab70012a0200056cabf008080fb0037
:10062000800220000088b90000007800000041002e
:10063000b1032000fc0107000000e00012003200be
:1006400010c0b30000eab7001000370056cabf0060
:100650008080fb00a2528000800220000088b90048
:10066000000078008200400010a0200000804000c0
:100670001e4878000200e800a052880003003700fe
:100680000000000001003700000000008560a900a4
:100690000080fa004f03be004f02be004f01be00b3
:1006a0004f00be003600f900004006000040da00ae
:1006b0000000fe000a00fa00e20f500020003e0099
:1006c00050548000e10f50000600320080232000cb
:1006d0004523200023232000042320000000e00005
:1006e00004003a008022200045222000232220001e
:1006f00004222000060028001403630003003a00cf
:100700000608780000002800140a700013a8a3004f
:1007100001003a0013a0a000020078000500370095
:100720001388a300feff32003102fb00840a780028
:100730000000e9000000e000f9ff3a00080037007f
:1007400033002000b3bf9f00c0bf9f00d1bf9f00f8
:10075000e2bf9f006a805700450207006fb997000b
:10076000020078000080fa000000060003f0a200fa
:10077000889fbe008a9fbe008c1f7800f50007008e
:10078000fc0033006450e1004f0032006420e100bf
:100790005200320003826c0007003b000905d000c4
:1007a0000306d000820f54000c065d0002003900e1
:1007b0000200320089017800030678008582550026
:1007c00004003d000003fd008103fd008502ea00f6
:1007d0008b854200840f720002003b006000100015
:1007e000e08018006011b8000005eb007a28e100f5
:1007f0000a00390006007800c75ddd00f707b20087
:10080000878075002d003700828171000a01780011
:10081000610560008180d1000080d3008502e9007d
:10082000f9ff3b00060440008784480002003b00bb
:1008300060041400e0841c000988a3000700320053
:100840008a81710082817100610164008904d10094
:100850000884d3008b05e800170037000978a3004f
:1008600013003a000b00e000130034008b05e90090
:100870000804440089844c000a4474000978a300e9
:100880000d003a000b00e000070034008b05e90082
:100890000804440089844c0001003a000b00200049
:1008a0000978a300f7ff32000001eb0002003700d7
:1008b000828171000a0178006b0007000cf0a7002c
:1008c00001f0a000b40037006420e10002003a000b
:1008d000838f6c00b40033000801be000200be002c
:1008e000ad003700889fbe008a9fbe008c1f780035
:1008f000980007009f00330003866c006450e100fd
:100900002e0032006420e100330032006150e1002b
:100910002f0032006120e100310032008585550052
:10092000eb07b00009002000080420000500370094
:100930000804440089844c000a0031000603430087
:1009400087834b000001530081815b00f8ff330077
:100950000203be000800a0000804440089844c0083
:10096000f6ff3900c639dd00830173000100320053
:10097000130020008904d1000884d3000998a30043
:10098000050032000800a7000300a0008904d10080
:100990000884d3008b05e8008904d1000884d300c3
:1009a0000001eb000281d2002f00070001f0a1003e
:1009b0000cf0a70001f0a000770037006420e100f0
:1009c000790032000801be000200be00f7ff3700c8
:1009d0006120e100740032006000b800f3ff3700ce
:1009e0000000200001f82700f0ff3700f4ff2f007f
:1009f000a40037000001be00410007000470a700fa
:100a000003f0a10003f8a30013003a006509b10048
:100a100010003200090035006928e10002003500ad
:100a2000010028000000050000004000818048000f
:100a30008502e900fcff3a0000000600f88f420042
:100a4000050035008100d1000080d3008502e80058
:100a5000fcff3a00000006008000eb0000000500eb
:100a60006011b800a20037008100200061805500ad
:100a70000b003d000b00200061fe2f000100e10093
:100a80001d00340082817100610164008904d1007d
:100a90000884d3000000e800faff3a00710020004b
:100aa0006100640003007000020060000900320071
:100ab00061044400e0844c000988a5000500320070
:100ac0008b05e8006808e10002003a008904d100c3
:100ad0000884d300f20f20000258e10005003d0019
:100ae000c75ddd00f907b200898075000800780055
:100af000000006000bf827008b00780000000500be
:100b0000c70ade00f107b200f50fb200080032009c
:100b1000e1cf4200020032000170a0002400050075
:100b2000810f700001003200040805004400050038
:100b3000810f700002003a00140005008502e900f0
:100b40000000400081c04800fcff3b000170a00095
:100b5000240005000004be00e9ff07000003be00fa
:100b60000405be000200be00e5ff0700844f7500cb
:100b7000000006000200be006450e10005003600df
:100b80006420e100020036000968a30001003a0079
:100b90000800be000160a0004f0678004f05be00af
:100ba0004f04be0000000600f0ff2f00f1ff2700f9
:100bb000f9ff3700889fbe008a9fbe008c1f780017
:100bc000e4ff0700ebff330003866c006450e10094
:100bd000240032006420e100270032006150e1006f
:100be000220032006120e100210032008b854200aa
:100bf000eb07b1000134b800003ab8000804420025
:100c000089844a00013ab8000030b800888040006a
:100c100009014a00040033000000400081804800c0
:100c2000020149008b05e900c909dd00830170005c
:100c30000100320013002000c814de004814dd005b
:100c40004709de001200b200c808de000884700008
:100c500085ff070001f0a1000cf0a70001f0a00043
:100c6000cdff37006120e100cfff32000801be0058
:100c70000200be00f7ff37006150e100fcff3a00c0
:100c8000c9ff3700889fbe008a9fbe00841f78007e
:100c9000b0ff07004f00780011003300f0ff2f0075
:100ca000838f6c0006003b00040565000a00a70066
:100cb0000800370009f0a6001000200008003700e7
:100cc000820f5400838f5c00030039001000200065
:100cd00001003e000000200009f0a7000000ea002b
:100ce0004f05be004f04be000000e00000000600fb
:100cf000889fbe008a9fbe000082700004027100bf
:100d000004827100260032000004be000200be0012
:100d10006011b8006b092000950220000182cf000d
:100d20000a0039000541b1000082cf0007003900f8
:100d30000541b1000982cf00040039000541b1002e
:100d40000882cf00010039000541b1000542520080
:100d5000120032000a003b008281710061016400d0
:100d60008100d1000080d3008984d3000884d3009f
:100d70008b05e8000442e800f7ff3a00070037005f
:100d80000804440089844c00000048008180480029
:100d90008b05e9000442e900f9ff3a0032ff070041
:100da0004f05be004f04be00000006008001780021
:100db00002003700b15978000201e9000200e000aa
:100dc000fcff3a0000000600889fbe000004be0041
:100dd000050037000000fb008900780022000700b2
:100de000e10f400004003200384078000004e000c9
:100df000f8ff3a000000eb004f04be0000000600c0
:100e0000881f7800a1a62000efff070000047800eb
:100e1000a1a62000a0002000130007000800780011
:100e20004f047800000006000001780002007800fe
:100e3000b041780081cf5100030032000304e0008c
:100e4000f9ff3a000001eb00020078000000060004
:100e5000800078003104e000feff3a000080ea00e4
:100e60000080400000000600889fbe00010478005a
:100e7000b80090008084eb000118a3003a00320013
:100e8000180190000198a30002003a000200e0005f
:100e900035003a000190a0003104980080047800e9
:100ea000f90fb2000200e00002003a0028009000b2
:100eb000000c7800ea8f540005003a000178a30086
:100ec00003003a0088007800d0002000e6ff070009
:100ed00018009000d8009000810f50000b003200e5
:100ee0000000e80010049800180078000948780015
:100ef000000ce80011c0b30040a8200001487800b1
:100f0000ea8f540018003a00050037008800780086
:100f100009407800170007008004780012003700ad
:100f2000380090000088a3000f00320018019000e4
:100f3000a800900048009000defd07009800900097
:100f4000810f500004003200380090000003b3000d
:100f5000300498008084eb000000eb00100498003f
:100f600028009000000c7800090078004f04be00b3
:100f7000000006000200fa00889fbe00a0ff9f004c
:100f800001047800380090000068a30033003a00a4
:100f9000e200600005003a000003b300300498004e
:100fa000110498000080eb002e003700d804900058
:100fb0000900e00006003a0012002000e680570019
:100fc00048009000bbfd070019049800230037007b
:100fd000a80090000100e00008003a0071a820007d
:100fe00021049800010c7800210020005104980091
:100ff000110498000030a0003004980018019000ff
:10100000a800900048009000aafd0700280090006a
:101010008080eb0011049800aff897000148780039
:10102000000ce8002ff89700ea4f50000b003a0040
:10103000380090000088a3000800320018019000da
:10104000a8009000480090009afd07000000eb0007
:1010500010049800a8009000010c7800aff89700e9
:101060000100fb004f04be000080fa0000000600f3
:0810700000c0da0000000600d8
:020000040000fa
:1010780050610000796c00006f610000642000007e
:1010880069730000206f000076650000727300002d
:10109800697a000065000000626f00006e6a000057
:0810a8006f75000072000000ea
:020000040000fa
:1010b0001600fa00889fbe008a9fbe005007980065
:1010c0006107980072079800030f9800140f9800aa
:1010d000250f9800100020001007980080002000c5
:1010e000200798000004200030079800001020001e
:1010f000400798000000eb00000f7800024022003b
:10110000439724005e009000ee009000a9fe0700c7
:101110000200200003082400a6fe07000004be0011
:101120007e0090008e0890000001be0090fd070038
:101130000005be001e007800000040008e80e80020
:1011400000804000100078008000eb0044fe0700a3
:101150000001be000a00be0096fe07000001be00ae
:101160000800be00dffd0700c0528800d152880091
:101170001b0037001e007800000040008e80e80051
:1011800000804000100078008000eb0034fe070073
:101190000002be00c0528000d15280000001be009b
:1011a0000400be0083fe07000004be001e00e8002d
:1011b000000040008e80e8000080400010007800b1
:1011c0008000eb0026fe07000001be000800be0004
:1011d000c4fd0700c0528800d15288001e0fe800ed
:1011e000c0528000d15280000200200003f823008a
:1011f0005efd070018c0b30002f02f00f377240053
:10120000fafd07000000e00001003c000044eb0094
:101210000804e000030032001e007800e20f5000d6
:10122000d4ff3400c0528000d15280000200200060
:1012300003f823004dfd070018c0b30002f02f0093
:10124000f3772400e9fd07000000e00001003c0006
:101250000044eb000804e000020032000040eb0014
:1012600034003700c0528000d152800002002000bc
:1012700003f823003dfd0700c0528800d1528800ca
:101280008421ef00c0528000d15280001e099000de
:10129000ae09900047fe0700d6fd07000000780069
:1012a000100c8800c0528000d15280001e099000ae
:1012b000ae0990003ffe0700cefd07000000780059
:1012c000000c880085a1a9008461a900200c800081
:1012d0000000a1000010a0000020a000200c880049
:1012e000c0528000d1528000c2fd0700000078008b
:1012f000600888001021a9001061a9001e00780074
:1013000000407800634060000080fb0063006000e4
:101310004400dd0082088000f1fc2f0081006100a4
:10132000010070008008880011a1a90011e1a80047
:1013300010c0b3004f05be004f04be000080fa008d
:10134000000006000400fa00008fbe00c0528000ba
:10135000d15280001e01be0016fe0700a5fd070049
:1013600000007800000c88000080fa0000000600f1
:101370000800fa00889fbe00008fbe002207980078
:101380003307980080802a00001188000040280060
:10139000101188002062a800024022004397240018
:1013a0002e009000be00900002fe07000200200008
:1013b00003082400fffd07000200200003002400b2
:1013c00048fd07000004be000200200003082400be
:1013d0001e00be00f7fd07000001be000800be00b1
:1013e00040fd070002002000030024003dfd07002f
:1013f0000200200003f82300dcfc07007dfd07004d
:101400000000780040118800601980000040a000b2
:10141000601988008560a9002342a8009560a80093
:101420004005800000c0a10000d0a10000e0a000a5
:101430004005880081e0a800100280000050a00054
:101440000060a0000070a100100288004f04be00e0
:101450000080fa00000006000200fa00004f780049
:1014600000000000111180000020200000806000ba
:101470000000e000fbff3a001e00fb002011880086
:101480000080fa00000006000200fa0000000000e0
:101490002104800000802000008060000000e00047
:1014a000fbff320030118000004f78008560a900fa
:1014b0001e4078000080fa00000006000000fa00dc
:1014c000400e280000198800d00320001019880061
:1014d00020f0210020198800f07d2f00601988007d
:1014e0000080eb0080198800b0502000401988006f
:0c14f00021e3a8000080fa0000000600c4
:020000040000fa
:1014fc00000800000002000002000000000089004b
:10150c00111223009b32240046ad57003665bf00f4
:10151c0074488c00c19d5a00afd3be006ccae50064
:10152c00db7ee900f7f881001008010093331a0004
:10153c0022a556002c47b700753e6400c99c40009c
:10154c008ddbbf0052aeed00da64cb00fff9760004
:10155c00e80221008b301000029913002667af00bf
:10156c0076344400bd554a00adc3bc00588ed10042
:10157c009f6eeb00e7fa7c00c8f5d90083310a00b6
:10158c00209112001803a700772e6600b5543c007a
:10159c0045cbbd0042acd9009e508f00effb6600de
:1015ac00eafdd80074c90400428d530016619f00f7
:1015bc0070200400a915320027bb36004ccec500a4
:1015cc00df5eed00d7fc680088e199007aabf30090
:1015dc00ba8552000c439700711e6000a1142800bc
:1015ec0005b337003a26cd00de44cf00dffd5600b0
:1015fc00ece998006089fb00bb72aa0006638f00bf
:10160c00721440009d51220025ab34003006b90005
:10161c00174eef00c7fe5c00ccd5dd006aa9e300d5
:10162c00b8788a00f19b8700730e620095501c00fd
:10163c0041a335002a24b10016380700cfff46001d
:10164c00eedddc0054cdeb00b962a800f99a700015
:10165c008b08840081951a00a793b6002cc2a500b4
:10166c00d33ee100b7f0400008c91900522bdb0053
:10167c003a644e00ed5f76006dff7c0089940000ab
:10168c00859bb70012a6ad00d224c300bff1360073
:10169c00e0c118004809d3003b5a2a00e55e6c00f3
:1016ac004ff77d007e6c0a00a583b400188691006c
:1016bc00972ee300a7f23c00c0b5d1004229cb0025
:1016cc0038500a00d91b66006fef7e00744cfd0089
:1016dc005d8bb50002a4990096108700aff326002d
:1016ec00e2bdd00034c1c300394a2800d11a5800d9
:1016fc000be77f006e6ef5005c7c4d000cc6850020
:10170c00d71ee50097f4280080a191003aa3b300fe
:10171c00b2444a00cd5b560069df7800600ce900ea
:10172c001d722f00fb3e8d00d604c7009ff51600de
:10173c00e4a990002081bb00b332a200c55a4c0032
:10174c004bd779005e68e1001c680d00f33f7a000e
:10175c002e0ee70087f61c00c495d5002aa1a30025
:10176c00b0388200b19346006bcf7a005448dd004c
:10177c0059622d00eb3c70000ef91f008ff706002c
:10178c00e69dd40014c5ab00b122a000b992300084
:10179c0083c77b004e6ad500585c4900e33d6a0064
:1017ac002cf11e00780f0000580a00000400000005
:1017bc0000000000000a00005800000000000000bb
:1017cc005c0a000002000000000000005e0a00003d
:1017dc002600000002000000850a000000850a00b7
:1017ec000900000000020000870a000000870a00c0
:1017fc000e020100000000000000000000000000cc
:10180c0006020200000000005e0a0000840a0000cc
:10181c0006000000000000008a0a00000200000020
:0c182c00020000000100000000000000ad
:020000040000fa
:101838001600fa00889fbe005007980061079800bc
:1018480072079800030f9800140f980045579800e6
:101858000f0478000f007800800478004e50900044
:1018680067404000204798002e4090008080fb0091
:101878008100e900210798000080fb000000e800d3
:101888000000e8000000d100800040000f00780050
:10189800818747000000e8000000d10000004000f8
:1018a800300798004e509000e94f40000300360082
:1018b800c083280050fd07003d0037003e0090001f
:1018c80031c0b300014878003e00900011c0b30059
:1018d80011409800ae4890003e00900021409800ca
:1018e8006e009000804078003e00900031409800e3
:1018f8006e0090004800de00804078003e009000b6
:101908004140980050002000000f78000a0037007e
:101918001e007800650050009e089000008040007e
:1019280010407800804078003e0090001e00400083
:10193800014878001e0fe8002e4090000080fb0050
:101948009e0f5000f2ff3c002e4090000080fb00ec
:101958000080e900800078003e0090000081eb00e4
:1019680018000700400798002e4090000080fb00f8
:101978000080e900ce00900001417800be00900090
:10198800827078002e4090000080fb000000e90083
:10199800ce009000c808de0001417800be0090002b
:1019a800827078003e009000ae4090003c00070036
:1019b80089077800880778004f04be000080fa0085
:1019c800000006000800fa00100798002107980098
:1019d80032079800be009000010f78001000370011
:1019e8001e007800c800de001e009000104078003d
:1019f8000080fb001e016800f00f2000000061005d
:101a08000001400000802000000041001000780024
:101a1800008f68001e0090000000e8001007980082
:101a28002e00900000f0a7000000ea000000ea0085
:101a38004f00de0000407800ae0090008100e90011
:101a4800210798000004e000e5ff3a001e80ea0044
:101a58000080fa00000006000800fa00100798004d
:101a680021079800320798003e019000ae009000d0
:101a78001e009000d3ff0700008fea0070f42000da
:101a88009e007800808f500002003a0010c0b3001a
:101a9800010037000040eb000080fa00000006005b
:101aa8000400fa00000f78002147980000ccb3002a
:101ab80067fe0700190037001e0078001040780004
:101ac8000080fb00010c2000810f50000400320050
:101ad800b10d2000810f5000060032000a003700c7
:101ae800b0cdb3005afe0700c0cdb30058fe0700c2
:101af80009003700b0cdb30055fe0700d0cdb300c4
:101b080053fe0700040037001e00780010407800dc
:101b18004ffe0700000000001e0fe8002e40900056
:101b28000080fb000000ea004f00de000040780063
:101b3800ae4090008140e900214798000004e00091
:101b4800ddff3a0000ccb30041fe07000080fa0038
:101b5800000006006400fa000000eb00000f7800a7
:101b680000c1b30040df980040232100702f980087
:101b7800020020000310240000002000117e240031
:101b8800f9fd0700c902a900c9e2a900006aef002f
:101b9800cd02a9000e80e8008200200001852800ff
:101ba80080fc07000e80e800a7fc07008040780052
:101bb8000e80e80081427800000278006e289000cc
:101bc800fe2890000e3190009e31900018ff07000b
:101bd80000a026008101200001000700ecff37006b
:020000040000fa
:101be800f03fb1000180b10006003500ee030900a6
:101bf80000000000403fb1000180b100fbff3d0044
:101c08001000b000203fb00002003500008009003d
:081c18000000000000000600be
:020000040000fa
:0200000401f009
:040000000f000000ed
:020000040000fa
:0200000401f009
:0400080003000000f1
:020000040000fa
:0200000401f009
:04000c00810000006f
:020000040000fa
:0200000401f009
:04001000be0000002e
:020000040000fa
:0200000401f009
:040014005f00000089
:020000040000fa
:0200000401f009
:04001800fb000000e9
:020000040000fa
:0200000401f009
:04001c00c10000001f
:020000040000fa
:0200000401f009
:04002000ff000000dd
:00000001FF
